:10000000021DC81221EA121F6F80FB021D03CA3BAA
:100010007E37017D7A7300BD7E37017F7A7300BE23
:100020007E3701857A7300BF7E370189BE340002B6
:1000300068137E37017B7A73004ABE70BE40067437
:10004000BE7AB3004A7E0800AD12190B7E3400ADB3
:100050007E2400000B1A207CB4120A146DFF7EE48B
:1000600046007F0712093A7A1F003E7E3400AF7EB9
:100070002400000B1A207CB4120A147F0712093ADC
:100080007A1F00427E3400B17E2400000B1A207CCF
:10009000B4120A147F0712093A7A1F00467E1F0025
:1000A0004F7A1F002A7E1F00537A1F00327E3400D1
:1000B000B57E2400000B1A209E27008B7CB4120A08
:1000C000147EE442837F0712093A7A1F004F7E3480
:1000D00000B77E2400000B1A209E27008D7CB412EE
:1000E0000A147F0712093A7A1F00537E3400B97E42
:1000F0002400000B1A209E27008F7CB4120A147F64
:100100000712093A7A1F00577EF4FA397EE43C8ED2
:100110007E1F00577F0712089A7A1F02037E1F0076
:100120003E7A1F02077E1F00427A1F020B7E1F00CD
:10013000467A1F020F7E1F004F7F0712089ACA1BC4
:100140007E1F00537F0712089A7F01DA1B120D36BB
:100150007E2701AD7CB4120A147E14CCCD7E043D02
:10016000CC12089A7F017E1F00911207DF7F717EFB
:100170004300BDE4120A196D117E0443001207DF2B
:100180006D117E04408012093A7F017F171207DF4C
:100190007A1F007F7EF3004ABEF01428217E7F0084
:1001A0007F7E1F00087F071207E27A1F00087F0783
:1001B0001207E27A1F00087F071207E280029F11F0
:1001C0007A1F00087EF480007EE444BB7E6F000846
:1001D0007F167F071209BB280280117EF480007E03
:1001E000E4C4BB7F167F071209BB50047A7F000866
:1001F0007EB47BB37EA43BF27E1F00087F0512080D
:100200009A7F717E14CCCD7E0440D47E6F007F7FB8
:100210001612089A7F071207E27F717E0F005B7F3C
:10022000161207DF6D997E8440C07F0412089A7F02
:10023000071207E27A1F005F7A6F005BBEF0142896
:10024000147E0F005F7E1F00531207DF7E0F00C079
:100250001207E280029F117A1F00C06D777E64430F
:10026000FA7E6F00C07F167F031209BB28067A3F13
:1002700000C080136DFF7EE4C3FA7F167F0712096A
:10028000BB50047A7F00C07E0F005F7E6F00537FFB
:10029000161207E27E14D70A7E043F5312089A7F93
:1002A000717E1F00C07F0512089A7F071207E27F48
:1002B000717E0F00327F161207DF7F0412089A7FCB
:1002C000071207E27A1F00737F031209BB28047A22
:1002D0003F00736DFF7EE4C3FA7E1F00737F071239
:1002E00009BB50047A7F00737E2701AF7CB4120AE9
:1002F000147E14CCCD7E043DCC12089A7F017E1F63
:1003000000951207DF7F717E4300BEE4120A196D6B
:10031000117E0443001207DF6D117E044080120934
:100320003A7F071207E27A1F00837E73004ABE708D
:100330001428217E7F00837E1F000C7F071207E2B6
:100340007A1F000C7F071207E27A1F000C7F07124A
:1003500007E280029F117A1F000C7E1480007E0449
:1003600044BB7E7F000C7F171209BB280E7E3480B1
:10037000007E2444BB7A1F000C80157ED480007E52
:10038000C4C4BB7F177F061209BB50047A6F000CF0
:100390007E1F000C7F0512089A7F717E14CCCD7EE3
:1003A0000440D47E6F00837F1612089A7F071207DD
:1003B000E27F717E0F00637F161207DF7F04120851
:1003C0009A7F071207E27A1F00677A6F00637E73D5
:1003D000004ABE701428147E0F00677E1F004F1263
:1003E00007DF7E0F00C41207E280029F117A1F0010
:1003F000C47E7F00C47F177F031209BB28067A3FA3
:1004000000C480176D117E04C3FA7F171209BB5018
:100410000A6D337E24C3FA7A1F00C47E0F00677E04
:100420006F004F7F161207E27E14D70A7E043F53F7
:1004300012089A7F717E1F00C47F0512089A7F07F9
:100440001207E27F717E0F002A7F161207DF7F04FA
:1004500012089A7F071207E27A1F00777F031209BA
:10046000BB28047A3F00776D117E04C3FA7E1F001B
:10047000771209BB500A6D337E24C3FA7A1F0077C6
:100480007E4300BFE4120A196D117E044300120777
:10049000DF7E0F00571207E27A1F00877E0F009B56
:1004A0006D337E2443B41207DF120A4C7A3701877A
:1004B000BE340168400C7E3701879E3401687A376C
:1004C00001877E73004ABE7014280D7E0F00877E60
:1004D0001F001E1207E280029F117A1F001E6DFF8F
:1004E0007EE4447A7E6F001E7F167F071209BB28C8
:1004F00002800F6DFF7EE4C47A7F167F071209BB6E
:1005000050047A7F001E7E14CCCD7E043DCC7E1F2D
:10051000001E12089A7F716D117E0440A07E6F004C
:10052000877F1612089A7F071207E27F717E0F00FD
:100530006B7F161207DF6D117E04408012089A7FD0
:10054000071207E27A1F007B7A6F006B6DFF7EE473
:1005500043487E1F007B7F071209BB28047A7F0077
:100560007B6DFF7EE4C3487E1F007B7F071209BBC3
:1005700050047A7F007B7E6F00777E7F00737F1749
:100580007F061207DF7E5F007B7F051207DF120AFE
:100590004C7A3700997F17120A017F061207DF7F16
:1005A000051207E2120A4C7A37009F7F177F061266
:1005B00007E27F051207E2120A4C7A3700A17F1684
:1005C0007F071207DF7F051207DF120A4C7A370018
:1005D000A37E370189BE34000268030206F37E273A
:1005E00001939E27018D7CB4120A147A1F004B7E62
:1005F0005F004B7E1F006F7F051207E27A1F006FBE
:100600007F051207E27A1F006F7F051207E27A1F4B
:10061000006F7EF480007EE4453B7E6F006F7F16A6
:100620007F071209BB280280117EF480007EE4C59A
:100630003B7F167F071209BB50047A7F006F9F77BC
:100640007F159F001209BB400B7E1F00227F0712FF
:1006500009BB40147F157F071209BB500F7E1F0096
:10066000227F071209BB40047A7F006F7E2701B307
:10067000E4120A147E0F006F12089A7E14CCCD7E0D
:10068000043E4C12089A7F717E2701B1E4120A14CD
:100690007F0512089A7F071207E27F717E0F002202
:1006A0007F151207DF7F017E2701B5E4120A1412BD
:1006B000089A7E14CCCD7E043DCC12089A7F071296
:1006C00007E2120A4C7A3701917A5F00227E3701E5
:1006D00091BE3400FA08087E3400FA7A3701917E20
:1006E000370191BE34FF06581E7E34FF067A37016B
:1006F0009180146D337A3701919F007A0F006F7AE1
:100700000F004B7A0F00227E73004ABE700A50150C
:100710006D227A27019D7A27019F7A2701A17A27E6
:1007200001A30207D67E63004A7E7008AC672E37AD
:1007300001917A3700107E3700992E3700107A37F2
:10074000019DBE3407D008067E3407D0800C7E376A
:10075000019DBE34000058066D337A37019D7E3707
:10076000009F2E3700107A37019FBE3407D008064D
:100770007E3407D0800C7E37019FBE3400005806BF
:100780006D337A37019F7E3700A12E3700107A37FC
:1007900001A1BE3407D008067E3407D0800C7E3716
:1007A00001A1BE34000058066D337A3701A17E37AF
:1007B00000A32E3700107A3701A3BE3407D00806F5
:1007C0007E3407D0800C7E3701A3BE34000058066B
:1007D0006D337A3701A312166ADA3B22020B766E6A
:1007E00000807CB1337CB033680D0468EF7CB53396
:1007F0007CB43378037F10220468E17D5092F77D4A
:10080000457D51BF2140067C807F017F12120B394C
:100810007EA1D05CB004780320D5C17CB0047807F9
:100820005002B2D5020B7E92D5BE80FF68F67CB82E
:100830009CB06C00602AB418057C41020B5250FB3E
:1008400080032F00047C9B5E900778F630E4067CE2
:10085000437D106D0030E3087C437C327C210A002C
:1008600030F5199F10780E22020B7B1B8068F92F40
:100870001150020B707CB530E7F1801B2D317CB537
:10088000A5397C5B50110B807803020B7E1E34135C
:1008900050034E60801A2B020B525D22680D5D00E2
:1008A00078122D220B4068099F11222D000B007831
:1008B000F9020B76120B395C800B8068082481509A
:1008C000072CB0500A020B7E2CB04003020B7B7C3D
:1008D0008B5D1178267CB17CA5BE1080680A5D33E3
:1008E000780DA5BD80057F10020B686D0080307FFC
:1008F000017C5B7CB17CA5AD1280245D337806A5BC
:10090000BD80F080E1CA887D41AD437CB17CA5AD5E
:10091000122D1450020B047C5BAD232F01DA88A446
:100920002D05BE008040060B80780480982F007C47
:10093000437C507C617C72020B52BE24FFFF680630
:10094000BE04FFFF7803020B76120B395CB004681B
:10095000F57CB8A54868EF7CB870039F1122A5B854
:100960000003020B7E2E008150079C803807020B8B
:100970007B9C8050ED0A51C2E74D517803020B6811
:100980007E5400807E901A6C0080061B9068142FA5
:1009900011BF1040049F104CAB0330E7EECAA86CA7
:1009A000AA80E8DA39DA587C4ABE5080500A1B80A7
:1009B00068BC2F1150020B70020B5274F86CAA6EB7
:1009C00040806E0080BEB0FF68277C837C975C3BD4
:1009D0005C7BBF10682AF4400D7C382D15F45C3B1D
:1009E000500F0B04800B7C792D35F45C7B50020B8F
:1009F00024BF10680B7CB020E7067CB420E701B36D
:100A0000225D226809BE24FFFF68036E4080227EBB
:100A1000A020800C7EA01080057EA0086C556D3350
:100A20003392D5500A6E34FFFF6E24FFFF0B1CA5D6
:100A3000EC3340062F11D5F0F6227CBA247EA2D5E5
:100A4000137C767C65A5CC92E77C5B227CB5337CFD
:100A5000B43392D54E5080248140039F11227C45AF
:100A60007C567C676C7724E0500E7E1CFFFF221EB4
:100A7000341E2450034E60800478F430D50A6E345E
:100A8000FFFF6E24FFFF0B1C227CB5A2E7D2E77CA0
:100A90001B7CB4334009680DB4FF0BA5BDFF0302F6
:100AA0000B76020B7E227C0B2481C2E0F582F404DB
:100AB0002CB07C2BC3137C4B7CB592E77C5B7F41D5
:100AC0007CB6A2E77CB1A5BA7F02C31334009400C0
:100AD0007C2B7EA091A47CBA13F494FEACB2337C40
:100AE000BA33248CD3137C5BE492E77C6B6C777E07
:100AF000403F7583027F517F017F1412093A7F05C1
:100B00001207E29E240080D583EB7E01826C110ED9
:100B1000041E042D205E407F227F617F0112089A0F
:100B20006E40806D117E043F801207E2120A897FB9
:100B3000017F1612093A020BAA2D0092D50E104E13
:100B400010807D422D445002B2D54E50806C447CC2
:100B5000B8222C4450120B1C7E40005E507FBE1801
:100B6000000078040B806816A2D57CB8137C4B7CFF
:100B7000B592E77C5B227E1CFFFF229F11227E2420
:100B8000FF8020D5026C456D3322BE1249253E4CB4
:100B9000CCCDBEAAAAAB3F8000003E7ADBB03EEDD2
:100BA00063383F24BC7D3F490FDB7DC25E407FBE82
:100BB000247F8040106803020B767E340FDB7E2496
:100BC0003FC9020C6E5EC480007D522D55BEA07FD1
:100BD000401378049420400D7F017E243F806D33C4
:100BE00012093A0BC47CB5337CB433248430E70457
:100BF0006DDD803E047CAB7CB5D2E754F0C333D5C9
:100C0000F0FC5407340023230ADB7F417F017C4B37
:100C1000E4120A191B417F7112089A7E043F806D0D
:100C2000111207E27F077F717F141207DF7F07121F
:100C3000093A7F717E940B8A7E8400FF7403120C44
:100C40007C7F0712089A5DDD68147E540B967E4403
:100C500000FF2D5D0B2A00691200021207E27D5C85
:100C600030E00B7E04BFC97E140FDB1207E25D2269
:100C700068095E407F5EC480004D2C22CAB87F01A7
:100C800012089ADAB87F510B4A20693400020B4EE1
:100C90007F05CAB812089A0B4A00691400020B4E6D
:100CA0001207E2DAB81478E8227D51AD037D027DA7
:100CB00021AD052D12AD352D21226D0074104D0092
:100CC000780B4D2278278D317D126D22227D437D58
:100CD000326D222F112D445002A50FBF1040049FEA
:100CE000100B901478ED7F016D227D34227D417DC3
:100CF000138D247D022F004004BD0440049D040B8D
:100D0000141478F17D237D317D106D00226CAABE14
:100D100008000068201E540B5450167E1B807A0B6E
:100D2000800B1C0B0C800A0B1A401B0A400B1D0B7E
:100D30000D1B5478F222CA3B7F307A1F01FF7E1FC1
:100D4000020B7F0112089A7F717E1F02077F01123A
:100D5000089A7F071207E27F717E1F020F7F011240
:100D6000089A7F071207E2120A897F717E1F020725
:100D70007F0712093A7A1F02077E1F020B7F0712B4
:100D8000093A7A1F020B7E1F020F7F0712093A7A77
:100D90001F020F7E4F00367E6F00267F167F0412E3
:100DA000089A7F717E5F003A7E1F002E7F05120831
:100DB0009A7F071207DF6D117E04400012089A7AAD
:100DC0001F02137F147F0512089A7F717E0F002E79
:100DD0007F1612089A7F071207E26D117E04400009
:100DE00012089A7F617E0F002E7E1F002E12089A35
:100DF0007F717E0F00267E1F002612089A7F071241
:100E000007DF7F717F147F0412089A7F017F17121A
:100E100007DF7F717F157F0512089A7F071207E2AF
:100E20007F717E1F020F7F0612089A7F517E1F027C
:100E30000B7F0712089A7F051207DF7F417E1F0292
:100E4000077F0712089A7F717E0F02137E1F020F21
:100E500012089A7F071207DF7F517E0F02137E1F51
:100E6000020B12089A7F717E1F02077F0612089AF2
:100E70007F071207DF7F617EF4126F7EE43A837F83
:100E8000147F0712089A7E0F00121207E27A1F00E1
:100E9000127F157F0712089A7E0F00161207E27A5A
:100EA0001F00167F167F0712089A7E0F001A12077E
:100EB000E27A1F001A7EF4CCCD7EE43F4C7F177F90
:100EC0000412089A7E0F01FF1207E27E0F00121231
:100ED00007E27A1F01FF7F177F0512089A7F03122E
:100EE00007E27E0F00161207E27F317F177F06129E
:100EF000089A7E0F02031207E27E0F001A1207E221
:100F00007A1F02037E1F002E120A017E4F01FF7F0F
:100F10000412089A7F717E1F00367F0312089A7FA1
:100F2000017F171207DF7F717E5F02037E1F003A89
:100F30007F0512089A7F017F171207DF7EF4126F78
:100F40007EE43B837F0712089A7E0F00261207E299
:100F50007A1F00267E1F00367F0512089A7F617E69
:100F60001F00267F0412089A7F061207E27F617E27
:100F70001F003A7F0312089A7F017F161207DF7F56
:100F80000712089A7E0F002E1207E27A1F002E7FAA
:100F90000512089A7F617E1F00267F0312089A7F40
:100FA000061207DF7F617E1F003A7F0412089A7FD6
:100FB000061207E27F0712089A7E0F00361207E238
:100FC0007A1F00367E1F002E7F0312089A7F617EF3
:100FD0001F00267F0512089A7F061207E27F517EC6
:100FE0006F00367F167F0412089A7F017F15120763
:100FF000DF7F0712089A7E0F003A1207E27A1F007D
:101000003A7E0F002E7E1F002E12089A7F717E0FEF
:1010100000267E1F002612089A7F071207E27F71C2
:101020007F167F0612089A7F071207E27F717E1FE4
:10103000003A7F0112089A7F071207E2120A897F9D
:10104000717E1F00267F0712093A7A1F00267E1F35
:10105000002E7F0712093A7A1F002E7E1F00367F6E
:101060000712093A7A1F00367E1F003A7F071209DD
:101070003A7A1F003A7E0F003A7E1F002E12089A1D
:101080007F717E0F00367E1F002612089A7F07129E
:1010900007DF6D117E04400012089A120B197E14AE
:1010A0002EE17E04426512089A7A1F00917E0F009D
:1010B0003A7E1F003612089A7F717E0F002E7E1F27
:1010C000002612089A7F071207E26D117E04400085
:1010D00012089A120B197E142EE17E044265120842
:1010E0009A7A1F00957E5F002E7F157F0512089A61
:1010F0007F717E4F00267F147F0412089A7F0712AB
:1011000007E27F717E6F00367F167F0612089A7F96
:10111000017F171207DF7F317E7F003A7F177F073D
:1011200012089A7F017F131207DFCA1B7F147F0703
:1011300012089A7F717F157F0612089A7F0712079F
:10114000E26D117E04400012089ADA0B121CBE7E7A
:10115000142EE17E04426512089A7A1F009BDA3B46
:1011600022CA3B74FA121B987F3174F7121B987FC6
:1011700071BE78000078059F110214117F137CBCAA
:10118000120A0F6D117E04468012093A7F617E2794
:1011900000D2E4120A147F516D117E0444801209BA
:1011A0003A7F017F161207DF7F017E2700D67CB4CD
:1011B000120A1412089A120A4C7A1F00EC7F137C50
:1011C000BC120A0F6D117E04480012093A7F616D4E
:1011D000117E0446007F1512093A7F017F1612071F
:1011E000DF7F0112089A7F017E2700DA7CB4120AA1
:1011F0001412089A120A4C7A1F00F07E6F00EC2F2E
:10120000617A6F00E87F167CB4120A0F6D117E04BC
:1012100045A012093A120A4C7A1F00E07F167CB4EE
:10122000120A0F6DBB7EA440007F0512093A6D11B2
:101230007E04477A1207DF120A4C7A1F00EC7E4FB9
:1012400000EC7F147F04120CA97CB4120A0F7F01FA
:101250007E2700D47CB4120A1412089A6D117E0401
:10126000470012093A120A4C7F617A1F00F07F147E
:101270007CB4120A0F7F417E2700D07CB4120A147E
:101280007F0412089A7F0512089A7F017F167CB4AA
:10129000120A0F1207E2120A4C7A1F00F07CB412F5
:1012A0000A0F6D117E04408012093A7F617E27008B
:1012B000CE7CB4120A146D117E04478012089A7F06
:1012C000061207E2120A4C7A1F00F07E2700CC7C3F
:1012D000B4120A147F0412089A7F017F1412089A2C
:1012E0006DDD7EC449007F0612093A7F517E2700DA
:1012F000CA7CB4120A147F0412089A7F051207E20E
:101300007F0612093A120A4C7A1F00EC7CB4120ACA
:101310000F6D117E04470012093A6D117E043F8063
:101320001207E27F017E2700C8E4120A1412089A0D
:10133000120A4C7A1F00EC7F177CB4120A0F7F014F
:101340006D337E2449801207DF120A4C7F717A1FA9
:1013500000E47E1F00F07CB4120A0F6D117E04457C
:101360008012093A7F017F177CB4120A0F1207DF3F
:101370007E1450007E0445C312089A7F717E1F00C0
:10138000EC7CB4120A0F7F017F1712093A120A4C43
:101390007A1F00E47CB4120A0F7F717E2700DE7C86
:1013A000B4120A147F0712089A7F017F1712089A55
:1013B0006D117E044F0012093A120A4C7F617A1FA8
:1013C00000EC7E2700DC7CB4120A147F0712089A16
:1013D0006D117E04470012093A120A4C7A1F00F080
:1013E0002F167CB4120A0F7F017E2700D87CB4121E
:1013F0000A141207E26D117E04418012093A7F013E
:101400007F171207E2120A4C7A1F00E47CB4120A1A
:101410000FDA3B227E34269E7E2400FF7E140000DD
:101420007E0400017420120D0D7E1400007E040065
:1014300001121EAB6003021566900000E00A3B7AC1
:1014400037017B900001E00A3B7A37017D90000272
:10145000E00A3B7A37017F900003E00A3B7A3701CC
:1014600085900004E0B401087E3701AD0B3480099B
:10147000B4FF127E3701AD1B347A3701AD7E3400E4
:10148000017A37019B900005E0B401087E3701AF77
:101490000B348009B4FF127E3701AF1B347A370159
:1014A000AF7E3400017A37019B900006E0B402124F
:1014B0007E370189BE34000268087E37018D7A3795
:1014C00001930A3B7A370189900007E0B4011E7E40
:1014D00037018F4D3378167E3701957A3701996D34
:1014E000337A37018B7E3400017A37018FB40206DC
:1014F0006D337A37018F900008E0B4550B7E3701C9
:10150000796E70017A370179121AEE7E5701819057
:101510000000F07E3701870A56900001F07CB790FA
:101520000002F07E570189900003F07E37018B1A8C
:1015300056900004F07CB7900005F07E57018F9024
:101540000006F07455900007F07E1400007E040041
:1015500001121D87121C797E3400017A3701836DD8
:10156000337A3701A5227E3701A50B347A3701A5DE
:10157000BE340032400E7E3400327A3701A56D331E
:101580007A37018322E47E94FECC7E84007E7A4BFF
:10159000B07EB4FECD7EA4007E7A5BB074607ED453
:1015A000FEC87EC4007E7A6BB07EF4FEC97EE40085
:1015B0007E7A7BB07E14FECA7E04007E7A0BB07EFB
:1015C00034FECB7E24007E7A1BB074117A4BB07A45
:1015D0005BB07E6BB044087A6BB07E7BB044087A17
:1015E0007BB07E0BB044087A0BB07E1BB044087A07
:1015F0001BB074077E34FED27A1BB074D07E34FEEA
:10160000D37A1BB0E47E34FEB17A1BB07E1BB044AB
:10161000017A1BB07E1BB044047A1BB07E1BB04421
:10162000107A1BB07E1BB044407A1BB0E47E34FEBF
:10163000B27A1BB07E1BB044027A1BB07E1BB04452
:10164000087A1BB07E1BB044107A1BB07E1BB044DE
:10165000407A1BB074807E34FEDD7A1BB07E34FE8F
:10166000C07E1BB044817A1BB0227E3701834D338C
:1016700078066D337A37018F6DBB7EA4C2487E7FBA
:1016800000917F177F051209BB40256DDD7EC442A6
:10169000487F177F061209BB38167E7F00957F179B
:1016A0007F051209BB40097F177F061209BB280678
:1016B0006D337A37018F7E37018F4D33781B6D3351
:1016C0007A37019D7A37019F7A3701A17A3701A3D2
:1016D0007A37018B7A370189227E270195E4120A35
:1016E000147F017E270199E4120A147F511207DF4B
:1016F0006DDD7EC441107F0612089A6DFF7EE441C5
:10170000207F0712093A120A4C7A37018B7E270193
:1017100097E4120A147F017F151207DF7F06120873
:101720009A7F0712093A120A4C7A37018D22CA3B76
:101730007AB301F77A0F01F37F317EA301F74CAA48
:10174000780574010217EB75C78075F5167AA30149
:10175000F87A7701F97E1F01F37A1F01FB75C50244
:101760007CBDF5F67CBEF5C37CBFF5C47E1F01F3DE
:101770007E1BB0F5C21221620B3C7E1F01F30B34BD
:101780007A1F01F37EB301F7147AB301F778D17EA3
:101790007701F96D667E7301F87A7301F77E1F0198
:1017A000FB7A1F01F3E47AB301F875C5017CBDF53E
:1017B000F67CBEF5C37CBFF5C41221627E1F01F327
:1017C0007E1BA0E5C2BCAB680874027AB301F88046
:1017D000130B3C0B347A1F01F37EB301F7147AB379
:1017E00001F778C91221C77EB301F8DA3B22CA7922
:1017F0007403121F157D136D007E1F02192F107ABE
:101800001F02197E3702170B347A370217BE3400D5
:1018100032406C6DFF7AF702177E1400327E1F0291
:1018200019120CBA7A3701817EE701A9BEE701815E
:10183000380A7E7701819E7701A980027D7F7ED75D
:1018400001AB9ED701A97D27E4120A146D117E0415
:1018500042C812089A7F717D2DE4120A147F017F1D
:101860001712093A120A4C7A370181BE34006428F3
:10187000087E3400647A3701819F117A1F0219DAD9
:10188000792274E07E70B612208374F47E70FF12A9
:10189000208374F56C7712208374021221217488DE
:1018A0001220D77A3700D2748A1220D77A3700D61E
:1018B000748C1220D77A3700DA748E1220D77A37D8
:1018C00000C874901220D77A3700CA74921220D7B9
:1018D0007A3700CC74941220D77A3700CE749612DF
:1018E00020D77A3700D074981220D77A3700D47472
:1018F0009A1220D77A3700D8749C1220D77A3700F2
:10190000DC749E1220D77A3700DE22CA3B7F301269
:1019100021B374D0121F9A743B121F9A1221B37410
:10192000D1121F9AE47AB30221121FC27EA30221B0
:101930000A3A2D377D267A1BB0C2A3D2A4122232D6
:10194000C2A41222327EB30221047AB302217E7332
:101950000221BE700D40D2121FC27EA302210A3A9C
:101960002D377D267A1BB0D2A3D2A4122232C2A474
:10197000122232122208DA3B22CAE87CAB7D437F76
:10198000707E34FFFFE4804D4CAA68260A2B5E244B
:10199000000178140A2B0B24BD24500C0A2B7F075E
:1019A0002D1229E0000180130A2B7F072D121B1432
:1019B00080060A2B7F072D127E0BE07C576C5E0A97
:1019C000156D002F002E0400FF2E08249E0B0A1018
:1019D0000A366D31040A1BBD1440ADDAE8227E548C
:1019E00026BE7E4400FF69320003692200017E2B7F
:1019F000307A1F01E27A3301E174307E0801E17E22
:101A00007005121E0774107E0801E17E7005121D1C
:101A100045E47AB3021F7EA3021F0A3A09B301E12B
:101A2000B4A5107CBA047AB3021F7E73021FBE7085
:101A30000540E37EB3021FBEB0056803740122E4D3
:101A400022CA3B9F33121161120A4C7EB300F47E0E
:101A50005002ACB5593500F57A3701977EB300F4E2
:101A6000047AB300F47E7300F4BE703C4005E47A5F
:101A7000B300F46C777402ACB7491500F56D002F14
:101A8000300B70BE703C40ED7E14003C7F13120C96
:101A9000BA7A370195DA3B22CAF86CFF7E7008AC3F
:101AA0007F492301BB4D2268237D132E1401BB1BEC
:101AB000241B1820492301BBBE240000380E4923F3
:101AC00001BD592301BB740119B301BA09B301BAAD
:101AD000601209B301B9B4020BE419B301BA493376
:101AE00001BF99340BF0BEF00540B1DAF822C2CA4A
:101AF00074307E1426C87E0400FF7E7005121E0717
:101B0000742A7E1426C37E0400FF7E7005121E0711
:101B100074217E700112210A74227E700112210A42
:101B200074247E701A12210A74257E702812210AEC
:101B300074267E700F12210A74207E700E12210A04
:101B4000D2CA227E17019D1A027E34FED57E240061
:101B50007E7A1B107E34FED67A1B307E17019F1AC8
:101B6000027E34FED77A1B107E34FED87A1B307E7C
:101B70001701A11A027E34FED97A1B107E34FEDAD8
:101B80007A1B307E1701A31A027E34FEDB7A1B100B
:101B90007E34FEDC7A1B3022CAD8CA797CFB121E46
:101BA000E07CEB7CBF04121EE07CDB7CBF0BB1123F
:101BB0001EE07CAB0A3D6D2274042F111478FB0AE1
:101BC0001E6D00740C2F001478FB4D134D020A3A61
:101BD0006D2274041E341E2450034E60801478F469
:101BE0004D314D20DA79DAD822CA3B7AB301F77A3F
:101BF0000F01F37F3175C78075F51675C5017CBD82
:101C0000F5F67CBEF5C37CBFF5C4122162E5C27E49
:101C10001F01F37A1BB00B3C7E1F01F30B347A1FBC
:101C200001F37EB301F7147AB301F778D11221C71B
:101C3000DA3B2275E900A9D7BA75EA007E34FE992D
:101C40007E24007E7E1BB044047A1BB075945075D0
:101C5000930075920075910875961D75951875B26B
:101C60000075B10075B40075B30075CA0075C90080
:101C7000C2A0C2A2C284C28622C2CA742A7E14260C
:101C8000C37E0400FF7E7005121E0774217E700162
:101C900012210A74227E700112210A74257E702896
:101CA00012210A74317E702012210A74267E700F70
:101CB00012210A74207E700F12210AD2CA22CA0B86
:101CC000691FFFFF690FFFFD12093A120BAA7F710E
:101CD0007F1F2E34FFFD7E1BB030E7229F007F1751
:101CE0001209BB380A7E140FDB7E04404980087E4F
:101CF000140FDB7E04C0497F171207E27F717F1744
:101D00001BFE22CA7BCA6BCA5BCA4BCA2BCA1BCA40
:101D10000BC0D0C083C082121A987E37021D0B34CC
:101D20007A37021DBE3401F440066D337A37021D46
:101D3000D082D083D0D0DA0BDA1BDA2BDA4BDA5B25
:101D4000DA6BDA7B32CA3B7A7301E67F30C29412D7
:101D500020287AB301E7E4801774FF1220287EA3BD
:101D600001E80A3A2D377D267A1BB07EB301E804DC
:101D70007AB301E87E7301E6BE7301E838DBD294E2
:101D80007EB301E7DA3B22CAF8C2CA74A07E702093
:101D9000121E07D2CAA2CBE43378FA7407122225A6
:101DA0007CFB74277C7F12210A7CBF30E40C74E139
:101DB0007E70FF12210A7410800B7CBF30E5047422
:101DC00020800274FFDAF8227584017E44041FE447
:101DD0007A49B01B4478F97EF802217E0400FF7E28
:101DE00014226B0B0A405D44681A692000020B0E36
:101DF0000B44800A7E0BB07A29B00B240B0C1B44D9
:101E000078F280DF020003CA3B7A7301E67F30C2BA
:101E1000941220287AB301E7E4800D7E3BB00B7466
:101E20001220287EB301E8047AB301E87E7301E64C
:101E3000BE7301E838E5D2947EB301E7DA3B226D48
:101E4000337A3701A77E34090C7A3701A97E340C26
:101E5000ED7A3701AB7E34FFD17A3701AD7E3400A5
:101E60000D7A3701AF7E3400017A3701B17A37013C
:101E7000B37A3701B5229F117E0801E17412121B5B
:101E8000E97E0801E17E34001274011219794D33A4
:101E900078137E3400127A3701F37E0F01717E18B9
:101EA00001E1022009121E3F021FE8CA3B7F307485
:101EB000071222257C7B7AB30220742712210A7E26
:101EC000B3022030E61574617F037E7020121D4539
:101ED00074E27E70FF12210AE480027401DA3B2270
:101EE000CAF87CFB1221B374EC121F9A7CBF121F3C
:101EF0009A1221B374ED121F9A121FC27CFBD2A357
:101F0000122232D2A4122232C2A412223212220887
:101F10007CBFDAF8227CAB75BD0075BE00E5BC5411
:101F2000F04CBAF5BCA9D6BC00000000A9A5BCE4E1
:101F30003368F9A9C5BCE5BD7C4B6C55E5BE0A3BD1
:101F40004D3222746B6C7712206574197E70071203
:101F50002065741A7E7004122065741B7E7008124E
:101F60002065741C7E70081220657464022121CAE9
:101F7000F86CFF7E7008AC7F09B301BA601209B338
:101F800001B9B4010BE419B301BA493301BF993463
:101F90000BF0BEF00440DCDAF822CA797CFBC2A464
:101FA0006CEE3EF0A2D792A3122232D2A4122232B9
:101FB000C2A41222320BE0BEE00840E6122137DA5A
:101FC0007922CA796CFFD2A36CEE3EF0D2A4122221
:101FD00032A2A3E4334CFBC2A41222320BE0BEE0D7
:101FE0000840E77CBFDA79227E0F01717E34001051
:101FF00074011219797A3701B79F111220BC9F1111
:102000007E0F0171741202172E7F717E5701F37FCC
:10201000107F07800A7E0B900B147A1B900B347D87
:10202000451B544D4478EE227C6B6C777CB6339222
:10203000953E60D297A296E4334C6BC2970B70BE6C
:10204000700840E87CB62212226812226912219F91
:1020500012226A12214D1215851222501218821274
:102060001F43022217CA797CF77CEB1221B374D08C
:10207000121F9A7CBE121F9A7CBF121F9A1222084E
:10208000DA7922CA797CF77CEB1221B374EC121F47
:102090009A7CBE121F9A7CBF121F9A122208DA790C
:1020A0002274641221217E1801A77A1F01717E1803
:1020B00001757A1F016D121E760220F175C78075B9
:1020C000F51675C5037CB5F5F67CB6F5C37CB7F59A
:1020D000C41221620221C7CA797CFB121EE07CEB8C
:1020E0007CBF04121EE07C6B6C770A2E4D32DA79CD
:1020F000226D337A3701757E3400807A3701856D21
:10210000337A3701877A37019B22CA797CF7C294E8
:102110001220287CEB7CBF122028D2947CBEDA7976
:10212000227CAB7E440E667D341B347D4378F87C84
:10213000BA147CAB78ED22D2A3122232D2A412229E
:1021400032A2A392D7C2A4122232A2D722438E80F7
:102150005389F0758A9A758CA9C28DD28CD2A9D276
:10216000AF22A2AF92D5C2AF75C65A75C6A5000000
:102170000000A2D592AF227E37019BBE34000178C9
:10218000096D337A37019B021FE8227E34FE997E67
:1021900024007E7E1BB044047A1BB075C1342274C7
:1021A0003F7E34FEA87E24007E7A1BB075DE2F753C
:1021B000BC802212223ED2A3D2A412223EC2A3127B
:1021C0002232C2A402223275C70075C50075C6004E
:1021D00075F6FF75C3FF75C4FF227E3701795E3443
:1021E00000016803C28122D28122121C331220A175
:1021F00012204712226502218B1217EE12141412BC
:10220000000E1222620221DA122232C2A3D2A412DA
:102210002232D2A3022232C2CAD294C297D2CB12A5
:1022200019DE021C79C29412202874FF122028D2D1
:1022300094220000007E1800091B1C78FC2200007C
:10224000007E1800141B1C78FC22121A4102225531
:10225000D2A3D2A42275C134220221F9022177022D
:102260002267021B43222222222222002801B901D6
:10227000000001000A2259010000030032224A0135
:1022800000000501F422660100000703E8225C0259
:10229000000009000A225F00020217000000040289
:1022A0001900000000000100F400007800F50000B3
:1022B000000000000000000000000000000000001E
:1022C000000000000000000000000000000000000E
:1022D00000000000000000000000000000000000FE
:1022E00000000000000000000000000000000000EE
:1022F00000000000000000000000000000000000DE
:1023000000000000000000000000000000000000CD
:1023100000000000000000000000000000000000BD
:10232000000000000000000400080000000000049D
:10233000000C000000000004001200000000000477
:102340000016000000000004001A00000000000455
:10235000001E000000000004002200000000000435
:1023600000263F8000000004002A00000000000456
:10237000002E0000000000040032000000000004F5
:102380000036000000000004003A000000000004D5
:10239000003E0000000000040042000000000004B5
:1023A0000046000000000001004A000004004F0049
:1023B000000000000400530000000000040057006B
:1023C0000000000004005B000000000004005F004B
:1023D000000000000400630000000000040067002B
:1023E0000000000004006B000000000004006F000B
:1023F00000000000040073000000000004007700EB
:102400000000000004007B000000000004007F00CA
:1024100000000000040083000000000004008700AA
:102420000000000002008B00000002008D00000090
:1024300002008F0000000400910000000000040072
:1024400095000000000002009900000004009B00BD
:102450000000000002009F0000000200A100000038
:102460000200A30000000200A500C8000200A700AF
:10247000C8000200A900C8000200AB00C8000100AB
:10248000BD80000100BE80000100BF80000400C0CC
:1024900000000000000400C4000000000000000074
:1024A000C0C1C1810140C30103C00280C241C60155
:1024B00006C00780C7410500C5C1C4810440CC01E6
:1024C0000CC00D80CD410F00CFC1CE810E400A005F
:1024D000CAC1CB810B40C90109C00880C841D801DD
:1024E00018C01980D9411B00DBC1DA811A401E00D7
:1024F000DEC1DF811F40DD011DC01C80DC411400F6
:10250000D4C1D5811540D70117C01680D641D2015C
:1025100012C01380D3411100D1C1D0811040F0010D
:1025200030C03180F1413300F3C1F28132403600D6
:10253000F6C1F7813740F50135C03480F4413C00E5
:10254000FCC1FD813D40FF013FC03E80FE41FA01DC
:102550003AC03B80FB413900F9C1F881384028007E
:10256000E8C1E9812940EB012BC02A80EA41EE0154
:102570002EC02F80EF412D00EDC1EC812C40E401F5
:1025800024C02580E5412700E7C1E68126402200DE
:10259000E2C1E3812340E10121C02080E041A001AC
:1025A00060C06180A1416300A3C1A2816240660056
:1025B000A6C1A7816740A50165C06480A4416C00E5
:1025C000ACC1AD816D40AF016FC06E80AE41AA015C
:1025D0006AC06B80AB416900A9C1A88168407800DE
:1025E000B8C1B9817940BB017BC07A80BA41BE01D4
:1025F0007EC07F80BF417D00BDC1BC817C40B401F5
:1026000074C07580B5417700B7C1B681764072005D
:10261000B2C1B3817340B10171C07080B04150004C
:1026200090C191815140930153C0528092419601D3
:1026300056C057809741550095C1948154409C01E4
:102640005CC05D809D415F009FC19E815E405A00DD
:102650009AC19B815B40990159C05880984188017B
:1026600048C0498089414B008BC18A814A404E0055
:102670008EC18F814F408D014DC04C808C414400F4
:1026800084C185814540870147C0468086418201DB
:1026900042C043808341410081C1808140400000AD
:1026A000000000000000000000000000000000002A
:1026B0000000000000000000000000000000A5A5D0
:0D26C000A5A5A534431010013443101001EE
:00000001FF
